{
	"data": {
		"bytecode": {
			"linkReferences": {},
			"object": "61060a610026600b82828239805160001a60731461001957fe5b30600052607381538281f3fe73000000000000000000000000000000000000000030146080604052600436106100355760003560e01c8063bcd70f961461003a575b600080fd5b610054600480360381019061004f9190610334565b610056565b005b600081511161009a576040517f08c379a000000000000000000000000000000000000000000000000000000000815260040161009190610481565b60405180910390fd5b6000816000815181106100a957fe5b602002602001015160600151905060018251111561016f576000600190505b825181101561016d578281815181106100dd57fe5b6020026020010151604001518360018303815181106100f857fe5b60200260200101516040015110610144576040517f08c379a000000000000000000000000000000000000000000000000000000000815260040161013b906104c1565b60405180910390fd5b82818151811061015057fe5b6020026020010151606001518201915080806001019150506100c8565b505b606481146101b2576040517f08c379a00000000000000000000000000000000000000000000000000000000081526004016101a9906104a1565b60405180910390fd5b5050565b600082601f8301126101c757600080fd5b81356101da6101d582610512565b6104e1565b9150818183526020840193506020810190508360005b8381101561022057813586016102068882610293565b8452602084019350602083019250506001810190506101f0565b5050505092915050565b600081359050610239816105a6565b92915050565b600082601f83011261025057600080fd5b813561026361025e8261053e565b6104e1565b9150808252602083016020830185838301111561027f57600080fd5b61028a838284610595565b50505092915050565b6000608082840312156102a557600080fd5b6102af60806104e1565b905060006102bf8482850161022a565b600083015250602082013567ffffffffffffffff8111156102df57600080fd5b6102eb8482850161023f565b60208301525060406102ff8482850161031f565b60408301525060606103138482850161031f565b60608301525092915050565b60008135905061032e816105bd565b92915050565b60006020828403121561034657600080fd5b600082013567ffffffffffffffff81111561036057600080fd5b61036c848285016101b6565b91505092915050565b600061038260178361056e565b91507f4d696c6573746f6e657320617272617920656d7074792e0000000000000000006000830152602082019050919050565b60006103c260288361056e565b91507f4572726f7220696e206d696c6573746f6e65732062756467657420646973747260008301527f69627574696f6e2e0000000000000000000000000000000000000000000000006020830152604082019050919050565b6000610428602f8361056e565b91507f4d696c6573746f6e65732073686f756c64206265206f7264657265642028617360008301527f632920627920646561646c696e652e00000000000000000000000000000000006020830152604082019050919050565b6000602082019050818103600083015261049a81610375565b9050919050565b600060208201905081810360008301526104ba816103b5565b9050919050565b600060208201905081810360008301526104da8161041b565b9050919050565b6000604051905081810181811067ffffffffffffffff82111715610508576105076105a4565b5b8060405250919050565b600067ffffffffffffffff82111561052d5761052c6105a4565b5b602082029050602081019050919050565b600067ffffffffffffffff821115610559576105586105a4565b5b601f19601f8301169050602081019050919050565b600082825260208201905092915050565b60008115159050919050565b6000819050919050565b82818337600083830152505050565bfe5b6105af8161057f565b81146105ba57600080fd5b50565b6105c68161058b565b81146105d157600080fd5b5056fea2646970667358221220f50eff31428f01362323f90c2f9a1cd9c68161ee5cdef0e66ced0da640962b1d64736f6c63430007050033",
			"opcodes": "PUSH2 0x60A PUSH2 0x26 PUSH1 0xB DUP3 DUP3 DUP3 CODECOPY DUP1 MLOAD PUSH1 0x0 BYTE PUSH1 0x73 EQ PUSH2 0x19 JUMPI INVALID JUMPDEST ADDRESS PUSH1 0x0 MSTORE PUSH1 0x73 DUP2 MSTORE8 DUP3 DUP2 RETURN INVALID PUSH20 0x0 ADDRESS EQ PUSH1 0x80 PUSH1 0x40 MSTORE PUSH1 0x4 CALLDATASIZE LT PUSH2 0x35 JUMPI PUSH1 0x0 CALLDATALOAD PUSH1 0xE0 SHR DUP1 PUSH4 0xBCD70F96 EQ PUSH2 0x3A JUMPI JUMPDEST PUSH1 0x0 DUP1 REVERT JUMPDEST PUSH2 0x54 PUSH1 0x4 DUP1 CALLDATASIZE SUB DUP2 ADD SWAP1 PUSH2 0x4F SWAP2 SWAP1 PUSH2 0x334 JUMP JUMPDEST PUSH2 0x56 JUMP JUMPDEST STOP JUMPDEST PUSH1 0x0 DUP2 MLOAD GT PUSH2 0x9A JUMPI PUSH1 0x40 MLOAD PUSH32 0x8C379A000000000000000000000000000000000000000000000000000000000 DUP2 MSTORE PUSH1 0x4 ADD PUSH2 0x91 SWAP1 PUSH2 0x481 JUMP JUMPDEST PUSH1 0x40 MLOAD DUP1 SWAP2 SUB SWAP1 REVERT JUMPDEST PUSH1 0x0 DUP2 PUSH1 0x0 DUP2 MLOAD DUP2 LT PUSH2 0xA9 JUMPI INVALID JUMPDEST PUSH1 0x20 MUL PUSH1 0x20 ADD ADD MLOAD PUSH1 0x60 ADD MLOAD SWAP1 POP PUSH1 0x1 DUP3 MLOAD GT ISZERO PUSH2 0x16F JUMPI PUSH1 0x0 PUSH1 0x1 SWAP1 POP JUMPDEST DUP3 MLOAD DUP2 LT ISZERO PUSH2 0x16D JUMPI DUP3 DUP2 DUP2 MLOAD DUP2 LT PUSH2 0xDD JUMPI INVALID JUMPDEST PUSH1 0x20 MUL PUSH1 0x20 ADD ADD MLOAD PUSH1 0x40 ADD MLOAD DUP4 PUSH1 0x1 DUP4 SUB DUP2 MLOAD DUP2 LT PUSH2 0xF8 JUMPI INVALID JUMPDEST PUSH1 0x20 MUL PUSH1 0x20 ADD ADD MLOAD PUSH1 0x40 ADD MLOAD LT PUSH2 0x144 JUMPI PUSH1 0x40 MLOAD PUSH32 0x8C379A000000000000000000000000000000000000000000000000000000000 DUP2 MSTORE PUSH1 0x4 ADD PUSH2 0x13B SWAP1 PUSH2 0x4C1 JUMP JUMPDEST PUSH1 0x40 MLOAD DUP1 SWAP2 SUB SWAP1 REVERT JUMPDEST DUP3 DUP2 DUP2 MLOAD DUP2 LT PUSH2 0x150 JUMPI INVALID JUMPDEST PUSH1 0x20 MUL PUSH1 0x20 ADD ADD MLOAD PUSH1 0x60 ADD MLOAD DUP3 ADD SWAP2 POP DUP1 DUP1 PUSH1 0x1 ADD SWAP2 POP POP PUSH2 0xC8 JUMP JUMPDEST POP JUMPDEST PUSH1 0x64 DUP2 EQ PUSH2 0x1B2 JUMPI PUSH1 0x40 MLOAD PUSH32 0x8C379A000000000000000000000000000000000000000000000000000000000 DUP2 MSTORE PUSH1 0x4 ADD PUSH2 0x1A9 SWAP1 PUSH2 0x4A1 JUMP JUMPDEST PUSH1 0x40 MLOAD DUP1 SWAP2 SUB SWAP1 REVERT JUMPDEST POP POP JUMP JUMPDEST PUSH1 0x0 DUP3 PUSH1 0x1F DUP4 ADD SLT PUSH2 0x1C7 JUMPI PUSH1 0x0 DUP1 REVERT JUMPDEST DUP2 CALLDATALOAD PUSH2 0x1DA PUSH2 0x1D5 DUP3 PUSH2 0x512 JUMP JUMPDEST PUSH2 0x4E1 JUMP JUMPDEST SWAP2 POP DUP2 DUP2 DUP4 MSTORE PUSH1 0x20 DUP5 ADD SWAP4 POP PUSH1 0x20 DUP2 ADD SWAP1 POP DUP4 PUSH1 0x0 JUMPDEST DUP4 DUP2 LT ISZERO PUSH2 0x220 JUMPI DUP2 CALLDATALOAD DUP7 ADD PUSH2 0x206 DUP9 DUP3 PUSH2 0x293 JUMP JUMPDEST DUP5 MSTORE PUSH1 0x20 DUP5 ADD SWAP4 POP PUSH1 0x20 DUP4 ADD SWAP3 POP POP PUSH1 0x1 DUP2 ADD SWAP1 POP PUSH2 0x1F0 JUMP JUMPDEST POP POP POP POP SWAP3 SWAP2 POP POP JUMP JUMPDEST PUSH1 0x0 DUP2 CALLDATALOAD SWAP1 POP PUSH2 0x239 DUP2 PUSH2 0x5A6 JUMP JUMPDEST SWAP3 SWAP2 POP POP JUMP JUMPDEST PUSH1 0x0 DUP3 PUSH1 0x1F DUP4 ADD SLT PUSH2 0x250 JUMPI PUSH1 0x0 DUP1 REVERT JUMPDEST DUP2 CALLDATALOAD PUSH2 0x263 PUSH2 0x25E DUP3 PUSH2 0x53E JUMP JUMPDEST PUSH2 0x4E1 JUMP JUMPDEST SWAP2 POP DUP1 DUP3 MSTORE PUSH1 0x20 DUP4 ADD PUSH1 0x20 DUP4 ADD DUP6 DUP4 DUP4 ADD GT ISZERO PUSH2 0x27F JUMPI PUSH1 0x0 DUP1 REVERT JUMPDEST PUSH2 0x28A DUP4 DUP3 DUP5 PUSH2 0x595 JUMP JUMPDEST POP POP POP SWAP3 SWAP2 POP POP JUMP JUMPDEST PUSH1 0x0 PUSH1 0x80 DUP3 DUP5 SUB SLT ISZERO PUSH2 0x2A5 JUMPI PUSH1 0x0 DUP1 REVERT JUMPDEST PUSH2 0x2AF PUSH1 0x80 PUSH2 0x4E1 JUMP JUMPDEST SWAP1 POP PUSH1 0x0 PUSH2 0x2BF DUP5 DUP3 DUP6 ADD PUSH2 0x22A JUMP JUMPDEST PUSH1 0x0 DUP4 ADD MSTORE POP PUSH1 0x20 DUP3 ADD CALLDATALOAD PUSH8 0xFFFFFFFFFFFFFFFF DUP2 GT ISZERO PUSH2 0x2DF JUMPI PUSH1 0x0 DUP1 REVERT JUMPDEST PUSH2 0x2EB DUP5 DUP3 DUP6 ADD PUSH2 0x23F JUMP JUMPDEST PUSH1 0x20 DUP4 ADD MSTORE POP PUSH1 0x40 PUSH2 0x2FF DUP5 DUP3 DUP6 ADD PUSH2 0x31F JUMP JUMPDEST PUSH1 0x40 DUP4 ADD MSTORE POP PUSH1 0x60 PUSH2 0x313 DUP5 DUP3 DUP6 ADD PUSH2 0x31F JUMP JUMPDEST PUSH1 0x60 DUP4 ADD MSTORE POP SWAP3 SWAP2 POP POP JUMP JUMPDEST PUSH1 0x0 DUP2 CALLDATALOAD SWAP1 POP PUSH2 0x32E DUP2 PUSH2 0x5BD JUMP JUMPDEST SWAP3 SWAP2 POP POP JUMP JUMPDEST PUSH1 0x0 PUSH1 0x20 DUP3 DUP5 SUB SLT ISZERO PUSH2 0x346 JUMPI PUSH1 0x0 DUP1 REVERT JUMPDEST PUSH1 0x0 DUP3 ADD CALLDATALOAD PUSH8 0xFFFFFFFFFFFFFFFF DUP2 GT ISZERO PUSH2 0x360 JUMPI PUSH1 0x0 DUP1 REVERT JUMPDEST PUSH2 0x36C DUP5 DUP3 DUP6 ADD PUSH2 0x1B6 JUMP JUMPDEST SWAP2 POP POP SWAP3 SWAP2 POP POP JUMP JUMPDEST PUSH1 0x0 PUSH2 0x382 PUSH1 0x17 DUP4 PUSH2 0x56E JUMP JUMPDEST SWAP2 POP PUSH32 0x4D696C6573746F6E657320617272617920656D7074792E000000000000000000 PUSH1 0x0 DUP4 ADD MSTORE PUSH1 0x20 DUP3 ADD SWAP1 POP SWAP2 SWAP1 POP JUMP JUMPDEST PUSH1 0x0 PUSH2 0x3C2 PUSH1 0x28 DUP4 PUSH2 0x56E JUMP JUMPDEST SWAP2 POP PUSH32 0x4572726F7220696E206D696C6573746F6E657320627564676574206469737472 PUSH1 0x0 DUP4 ADD MSTORE PUSH32 0x69627574696F6E2E000000000000000000000000000000000000000000000000 PUSH1 0x20 DUP4 ADD MSTORE PUSH1 0x40 DUP3 ADD SWAP1 POP SWAP2 SWAP1 POP JUMP JUMPDEST PUSH1 0x0 PUSH2 0x428 PUSH1 0x2F DUP4 PUSH2 0x56E JUMP JUMPDEST SWAP2 POP PUSH32 0x4D696C6573746F6E65732073686F756C64206265206F72646572656420286173 PUSH1 0x0 DUP4 ADD MSTORE PUSH32 0x632920627920646561646C696E652E0000000000000000000000000000000000 PUSH1 0x20 DUP4 ADD MSTORE PUSH1 0x40 DUP3 ADD SWAP1 POP SWAP2 SWAP1 POP JUMP JUMPDEST PUSH1 0x0 PUSH1 0x20 DUP3 ADD SWAP1 POP DUP2 DUP2 SUB PUSH1 0x0 DUP4 ADD MSTORE PUSH2 0x49A DUP2 PUSH2 0x375 JUMP JUMPDEST SWAP1 POP SWAP2 SWAP1 POP JUMP JUMPDEST PUSH1 0x0 PUSH1 0x20 DUP3 ADD SWAP1 POP DUP2 DUP2 SUB PUSH1 0x0 DUP4 ADD MSTORE PUSH2 0x4BA DUP2 PUSH2 0x3B5 JUMP JUMPDEST SWAP1 POP SWAP2 SWAP1 POP JUMP JUMPDEST PUSH1 0x0 PUSH1 0x20 DUP3 ADD SWAP1 POP DUP2 DUP2 SUB PUSH1 0x0 DUP4 ADD MSTORE PUSH2 0x4DA DUP2 PUSH2 0x41B JUMP JUMPDEST SWAP1 POP SWAP2 SWAP1 POP JUMP JUMPDEST PUSH1 0x0 PUSH1 0x40 MLOAD SWAP1 POP DUP2 DUP2 ADD DUP2 DUP2 LT PUSH8 0xFFFFFFFFFFFFFFFF DUP3 GT OR ISZERO PUSH2 0x508 JUMPI PUSH2 0x507 PUSH2 0x5A4 JUMP JUMPDEST JUMPDEST DUP1 PUSH1 0x40 MSTORE POP SWAP2 SWAP1 POP JUMP JUMPDEST PUSH1 0x0 PUSH8 0xFFFFFFFFFFFFFFFF DUP3 GT ISZERO PUSH2 0x52D JUMPI PUSH2 0x52C PUSH2 0x5A4 JUMP JUMPDEST JUMPDEST PUSH1 0x20 DUP3 MUL SWAP1 POP PUSH1 0x20 DUP2 ADD SWAP1 POP SWAP2 SWAP1 POP JUMP JUMPDEST PUSH1 0x0 PUSH8 0xFFFFFFFFFFFFFFFF DUP3 GT ISZERO PUSH2 0x559 JUMPI PUSH2 0x558 PUSH2 0x5A4 JUMP JUMPDEST JUMPDEST PUSH1 0x1F NOT PUSH1 0x1F DUP4 ADD AND SWAP1 POP PUSH1 0x20 DUP2 ADD SWAP1 POP SWAP2 SWAP1 POP JUMP JUMPDEST PUSH1 0x0 DUP3 DUP3 MSTORE PUSH1 0x20 DUP3 ADD SWAP1 POP SWAP3 SWAP2 POP POP JUMP JUMPDEST PUSH1 0x0 DUP2 ISZERO ISZERO SWAP1 POP SWAP2 SWAP1 POP JUMP JUMPDEST PUSH1 0x0 DUP2 SWAP1 POP SWAP2 SWAP1 POP JUMP JUMPDEST DUP3 DUP2 DUP4 CALLDATACOPY PUSH1 0x0 DUP4 DUP4 ADD MSTORE POP POP POP JUMP JUMPDEST INVALID JUMPDEST PUSH2 0x5AF DUP2 PUSH2 0x57F JUMP JUMPDEST DUP2 EQ PUSH2 0x5BA JUMPI PUSH1 0x0 DUP1 REVERT JUMPDEST POP JUMP JUMPDEST PUSH2 0x5C6 DUP2 PUSH2 0x58B JUMP JUMPDEST DUP2 EQ PUSH2 0x5D1 JUMPI PUSH1 0x0 DUP1 REVERT JUMPDEST POP JUMP INVALID LOG2 PUSH5 0x6970667358 0x22 SLT KECCAK256 CREATE2 0xE SELFDESTRUCT BALANCE TIMESTAMP DUP16 ADD CALLDATASIZE 0x23 0x23 0xF9 0xC 0x2F SWAP11 SHR 0xD9 0xC6 DUP2 PUSH2 0xEE5C 0xDE CREATE 0xE6 PUSH13 0xED0DA640962B1D64736F6C6343 STOP SMOD SDIV STOP CALLER "
		},
		"gasEstimates": {
			"creation": {
				"codeDepositCost": "309200",
				"executionCost": "374",
				"totalCost": "309574"
			},
			"external": {
				"checkMilestonesValid(ProjectUtils.Milestone[])": "infinite"
			},
			"internal": {
				"resumeMilestones(struct ProjectUtils.Milestone memory[] memory,uint256)": "infinite"
			}
		},
		"methodIdentifiers": {
			"checkMilestonesValid(ProjectUtils.Milestone[])": "bcd70f96"
		}
	},
	"abi": [
		{
			"inputs": [
				{
					"components": [
						{
							"internalType": "bool",
							"name": "completed",
							"type": "bool"
						},
						{
							"internalType": "string",
							"name": "description",
							"type": "string"
						},
						{
							"internalType": "uint256",
							"name": "deadline",
							"type": "uint256"
						},
						{
							"internalType": "uint256",
							"name": "percentageOfBudget",
							"type": "uint256"
						}
					],
					"internalType": "struct ProjectUtils.Milestone[]",
					"name": "_milestones",
					"type": "tuple[]"
				}
			],
			"name": "checkMilestonesValid",
			"outputs": [],
			"stateMutability": "pure",
			"type": "function"
		}
	]
}